{
	"src/ErrorThrowingContract.sol": {
		"ErrorThrowingContract": {
			"abi": [
				{
					"inputs": [],
					"name": "CustomError",
					"type": "error"
				},
				{
					"inputs": [
						{
							"internalType": "uint8",
							"name": "_from",
							"type": "uint8"
						}
					],
					"name": "CustomErrorFrom",
					"type": "error"
				},
				{
					"inputs": [],
					"name": "throwCustomError",
					"outputs": [],
					"stateMutability": "nonpayable",
					"type": "function"
				},
				{
					"inputs": [],
					"name": "throwsCustomErrorFromOne",
					"outputs": [],
					"stateMutability": "nonpayable",
					"type": "function"
				},
				{
					"inputs": [],
					"name": "throwsCustomErrorFromTwo",
					"outputs": [],
					"stateMutability": "nonpayable",
					"type": "function"
				}
			],
			"devdoc": {
				"kind": "dev",
				"methods": {},
				"version": 1
			},
			"evm": {
				"assembly": "    /* \"src/ErrorThrowingContract.sol\":65:424  contract ErrorThrowingContract {... */\n  mstore(0x40, 0x80)\n  callvalue\n  dup1\n  iszero\n  tag_1\n  jumpi\n  0x00\n  dup1\n  revert\ntag_1:\n  pop\n  dataSize(sub_0)\n  dup1\n  dataOffset(sub_0)\n  0x00\n  codecopy\n  0x00\n  return\nstop\n\nsub_0: assembly {\n        /* \"src/ErrorThrowingContract.sol\":65:424  contract ErrorThrowingContract {... */\n      mstore(0x40, 0x80)\n      callvalue\n      dup1\n      iszero\n      tag_1\n      jumpi\n      0x00\n      dup1\n      revert\n    tag_1:\n      pop\n      jumpi(tag_2, lt(calldatasize, 0x04))\n      shr(0xe0, calldataload(0x00))\n      dup1\n      0x493d10d6\n      eq\n      tag_3\n      jumpi\n      dup1\n      0x77fd2ff6\n      eq\n      tag_4\n      jumpi\n      dup1\n      0xc1e26033\n      eq\n      tag_5\n      jumpi\n    tag_2:\n      0x00\n      dup1\n      revert\n        /* \"src/ErrorThrowingContract.sol\":246:331  function throwsCustomErrorFromOne() public {... */\n    tag_3:\n      tag_6\n      tag_7\n      jump\t// in\n    tag_6:\n      stop\n        /* \"src/ErrorThrowingContract.sol\":337:422  function throwsCustomErrorFromTwo() public {... */\n    tag_4:\n      tag_6\n      tag_9\n      jump\t// in\n        /* \"src/ErrorThrowingContract.sol\":168:240  function throwCustomError() public {... */\n    tag_5:\n      tag_6\n      tag_11\n      jump\t// in\n        /* \"src/ErrorThrowingContract.sol\":246:331  function throwsCustomErrorFromOne() public {... */\n    tag_7:\n        /* \"src/ErrorThrowingContract.sol\":306:324  CustomErrorFrom(1) */\n      mload(0x40)\n      0x25a1451800000000000000000000000000000000000000000000000000000000\n      dup2\n      mstore\n        /* \"src/ErrorThrowingContract.sol\":322:323  1 */\n      0x01\n        /* \"src/ErrorThrowingContract.sol\":306:324  CustomErrorFrom(1) */\n      0x04\n      dup3\n      add\n        /* \"#utility.yul\":166:202   */\n      mstore\n        /* \"#utility.yul\":139:157   */\n      0x24\n      add\n        /* \"src/ErrorThrowingContract.sol\":306:324  CustomErrorFrom(1) */\n    tag_13:\n      mload(0x40)\n      dup1\n      swap2\n      sub\n      swap1\n      revert\n        /* \"src/ErrorThrowingContract.sol\":337:422  function throwsCustomErrorFromTwo() public {... */\n    tag_9:\n        /* \"src/ErrorThrowingContract.sol\":397:415  CustomErrorFrom(2) */\n      mload(0x40)\n      0x25a1451800000000000000000000000000000000000000000000000000000000\n      dup2\n      mstore\n        /* \"src/ErrorThrowingContract.sol\":413:414  2 */\n      0x02\n        /* \"src/ErrorThrowingContract.sol\":397:415  CustomErrorFrom(2) */\n      0x04\n      dup3\n      add\n        /* \"#utility.yul\":166:202   */\n      mstore\n        /* \"#utility.yul\":139:157   */\n      0x24\n      add\n        /* \"src/ErrorThrowingContract.sol\":397:415  CustomErrorFrom(2) */\n      tag_13\n        /* \"#utility.yul\":14:208   */\n      jump\n        /* \"src/ErrorThrowingContract.sol\":168:240  function throwCustomError() public {... */\n    tag_11:\n        /* \"src/ErrorThrowingContract.sol\":220:233  CustomError() */\n      mload(0x40)\n      0x09caebf300000000000000000000000000000000000000000000000000000000\n      dup2\n      mstore\n      0x04\n      add\n      mload(0x40)\n      dup1\n      swap2\n      sub\n      swap1\n      revert\n\n    auxdata: 0xa2646970667358221220a11cbb04935032aa3955914251c3dad8068bcd1c5fa6978d89c5ca12138a5fea64736f6c63430008110033\n}\n",
				"bytecode": {
					"linkReferences": {},
					"object": "608060405234801561001057600080fd5b5061012b806100206000396000f3fe6080604052348015600f57600080fd5b5060043610603c5760003560e01c8063493d10d614604157806377fd2ff6146049578063c1e2603314604f575b600080fd5b60476055565b005b6047608f565b604760c3565b6040517f25a14518000000000000000000000000000000000000000000000000000000008152600160048201526024015b60405180910390fd5b6040517f25a14518000000000000000000000000000000000000000000000000000000008152600260048201526024016086565b6040517f09caebf300000000000000000000000000000000000000000000000000000000815260040160405180910390fdfea2646970667358221220a11cbb04935032aa3955914251c3dad8068bcd1c5fa6978d89c5ca12138a5fea64736f6c63430008110033",
					"opcodes": "PUSH1 0x80 PUSH1 0x40 MSTORE CALLVALUE DUP1 ISZERO PUSH2 0x10 JUMPI PUSH1 0x0 DUP1 REVERT JUMPDEST POP PUSH2 0x12B DUP1 PUSH2 0x20 PUSH1 0x0 CODECOPY PUSH1 0x0 RETURN INVALID PUSH1 0x80 PUSH1 0x40 MSTORE CALLVALUE DUP1 ISZERO PUSH1 0xF JUMPI PUSH1 0x0 DUP1 REVERT JUMPDEST POP PUSH1 0x4 CALLDATASIZE LT PUSH1 0x3C JUMPI PUSH1 0x0 CALLDATALOAD PUSH1 0xE0 SHR DUP1 PUSH4 0x493D10D6 EQ PUSH1 0x41 JUMPI DUP1 PUSH4 0x77FD2FF6 EQ PUSH1 0x49 JUMPI DUP1 PUSH4 0xC1E26033 EQ PUSH1 0x4F JUMPI JUMPDEST PUSH1 0x0 DUP1 REVERT JUMPDEST PUSH1 0x47 PUSH1 0x55 JUMP JUMPDEST STOP JUMPDEST PUSH1 0x47 PUSH1 0x8F JUMP JUMPDEST PUSH1 0x47 PUSH1 0xC3 JUMP JUMPDEST PUSH1 0x40 MLOAD PUSH32 0x25A1451800000000000000000000000000000000000000000000000000000000 DUP2 MSTORE PUSH1 0x1 PUSH1 0x4 DUP3 ADD MSTORE PUSH1 0x24 ADD JUMPDEST PUSH1 0x40 MLOAD DUP1 SWAP2 SUB SWAP1 REVERT JUMPDEST PUSH1 0x40 MLOAD PUSH32 0x25A1451800000000000000000000000000000000000000000000000000000000 DUP2 MSTORE PUSH1 0x2 PUSH1 0x4 DUP3 ADD MSTORE PUSH1 0x24 ADD PUSH1 0x86 JUMP JUMPDEST PUSH1 0x40 MLOAD PUSH32 0x9CAEBF300000000000000000000000000000000000000000000000000000000 DUP2 MSTORE PUSH1 0x4 ADD PUSH1 0x40 MLOAD DUP1 SWAP2 SUB SWAP1 REVERT INVALID LOG2 PUSH5 0x6970667358 0x22 SLT KECCAK256 LOG1 SHR 0xBB DIV SWAP4 POP ORIGIN 0xAA CODECOPY SSTORE SWAP2 TIMESTAMP MLOAD 0xC3 0xDA 0xD8 MOD DUP12 0xCD SHR 0x5F 0xA6 SWAP8 DUP14 DUP10 0xC5 0xCA SLT SGT DUP11 0x5F 0xEA PUSH5 0x736F6C6343 STOP ADDMOD GT STOP CALLER "
				},
				"gasEstimates": {
					"creation": {
						"codeDepositCost": "59800",
						"executionCost": "111",
						"totalCost": "59911"
					},
					"external": {
						"throwCustomError()": "202",
						"throwsCustomErrorFromOne()": "177",
						"throwsCustomErrorFromTwo()": "210"
					}
				},
				"methodIdentifiers": {
					"throwCustomError()": "c1e26033",
					"throwsCustomErrorFromOne()": "493d10d6",
					"throwsCustomErrorFromTwo()": "77fd2ff6"
				}
			},
			"storageLayout": {
				"storage": [],
				"types": null
			},
			"userdoc": {
				"kind": "user",
				"methods": {},
				"version": 1
			}
		}
	}
}